:020000040800F2
:1030000010080020453100080D37000889360008F7
:103010000937000877340008EB480008000000007A
:10302000000000000000000000000000553900080A
:10303000893400080000000095370008693A00084C
:103040005F3100085F3100085F3100085F31000820
:103050005F3100085F3100085F3100085F31000810
:103060005F3100085F3100085F3100085F31000800
:103070005F3100085F3100085F3100085F310008F0
:103080005F3100085F3100085F3100085F310008E0
:103090005F3100085F3100085F3100085F310008D0
:1030A0005F3100085F3100085F3100085F310008C0
:1030B0005F310008CD3A0008914500085F310008F3
:1030C0005F3100085F3100085F3100085F310008A0
:1030D0005F310008B54600085F3100085F31000825
:1030E0005F3100085F3100085F3100085F31000880
:1030F0005F3100085F3100085F3100085F31000870
:103100005F3100085F3100085F3100085F3100085F
:103110005F3100085F3100085F3100085F3100084F
:103120005F3100085F3100085F3100085F3100083F
:10313000DFF80CD000F07AF8004800475D5E000828
:10314000100800200648804706480047FEE7FEE7D3
:10315000FEE7FEE7FEE7FEE7FEE7FEE7FEE7FEE747
:103160006D3A00083131000810B5002200E0521C11
:10317000835C8C5CA34201D1002BF8D1D8B2E1B2C0
:10318000401A10BD70B50F4D00B92868002412E038
:103190000A4602E09E4203D0521C1378002BF9D15C
:1031A000DAB2224305D02BB124B1002100F8011B73
:1031B00004E00446401C0678002EE9D12860204631
:1031C00070BD0000C80000202DE9F05F054600201A
:1031D00092469B4688460646814640241BE0284688
:1031E00041464746224600F042F853465A46C01A26
:1031F000914110D311461846224600F029F82D1AA5
:1032000067EB01084F4622460120002100F020F81C
:1032100017EB00094E41201EA4F10104DFDC4846F3
:1032200031462A464346BDE8F09F0000064C074D54
:1032300006E0E06840F0010394E807009847103486
:10324000AC42F6D3FFF778FF687900088879000868
:10325000202A04DB203A00FA02F100207047914056
:10326000C2F1200320FA03F3194390407047202A4B
:1032700004DB203A21FA02F00021704721FA02F320
:10328000D040C2F12002914008431946704721B155
:10329000826842F00102826003E0826822F001024B
:1032A0008260704710B504461248844208D101215B
:1032B000401500F0ADFA0021601500F0A9FA17E002
:1032C0000D48844208D10121001500F0A1FA002127
:1032D000201500F09DFA0BE00848844208D1012136
:1032E000C80300F095FA00214FF4004000F090FA76
:1032F00010BD00000024014000280140003C0140B6
:10330000014600208A6802F004020AB1012000E0B0
:10331000002070470146C86C80B27047024600200A
:1033200013680B400BB1012000E0002070470146FC
:1033300000208A6802F008020AB1012000E00020A3
:103340007047000030B502460020002350680F4C43
:1033500020400D790C6844EA0524204350609068B1
:103360000B4C2040D1E902542C434D7944EA4504EA
:1033700020439060D06A20F470000C7C641EE4B29C
:10338000234340EA0350D06230BD0000FFFEF0FF4F
:10339000FDF7F1FFF0B504460D4600200021092D90
:1033A00011DDE068A5F10A0606EB4607072606FAD6
:1033B00007F18843A5F10A0606EB460603FA06F173
:1033C0000843E0600CE0206905EB4507072606FA94
:1033D00007F1884305EB450603FA06F1084320612F
:1033E000072A0FDA606B561E06EB86071F2606FAC1
:1033F00007F18843561E06EB860605FA06F10843D8
:10340000606322E00D2A0FDA206BD61F06EB8607D9
:103410001F2606FA07F18843D61F06EB860605FA33
:1034200006F10843206310E0E06AA2F10D0606EB06
:1034300086071F2606FA07F18843A2F10D0606EB60
:10344000860605FA06F10843E062F0BD816841F0A6
:1034500008018160704721B1826842F4A002826055
:1034600003E0826822F4A00282607047816841F024
:1034700004018160704700BFFEE7000001200149A0
:10348000886070470030024070472DE9F0410246E5
:1034900000250026002000230024002791F803C007
:1034A0000CF00F0591F803C00CF0100CBCF1000FEC
:1034B00003D091F802C04CEA050591F800C0BCF1B8
:1034C000000F31D0146800202BE04FF0010C0CFAF3
:1034D00000F3B1F800C00CEA03069E4220D183003D
:1034E0004FF00F0C0CFA03F7BC4305FA03FC4CEA4F
:1034F000040491F803C0BCF1280F06D14FF0010C71
:103500000CFA00FCC2F814C00AE091F803C0BCF148
:10351000480F05D14FF0010C0CFA00FCC2F810C0A6
:10352000401C0828D1D31460B1F800C0BCF1FF0FD3
:1035300034DD546800202EE000F1080C4FF0010843
:1035400008FA0CF3B1F800C00CEA03069E4221D140
:1035500083004FF00F0C0CFA03F7BC4305FA03FC91
:103560004CEA040491F803C0BCF1280F05D100F126
:10357000080C08FA0CF8C2F8148091F803C0BCF1EA
:10358000480F07D100F1080C4FF0010808FA0CF8B9
:10359000C2F81080401C0828CED35460BDE8F081EA
:1035A000F0B50A46002300240021002500F0004663
:1035B000B6F1004F02D11D4EF16901E01B4E71685A
:1035C000C0F3034583B200F44016B6F5401F08D19E
:1035D00021F07061154E766826F07066134F7E609C
:1035E00012E000F48016B6F5801F06D1032606FA15
:1035F00005F4A14341F0706106E0460D360103FA7F
:1036000006F6B14341F0706122B1460D360103FA6E
:1036100006F6314300F00046B6F1004F02D1034EEA
:10362000F16101E0014E7160F0BD00000000014059
:10363000416170472DE9F04105460C4600260723FD
:10364000012229460F48FFF7A5FE002713E00121BC
:103650000C48FFF700FF00BF02210A48FFF75EFE9B
:103660000028F9D00748FFF755FE0644052001F071
:10367000B5FB781CC7B2A742E9DBB6FBF4F080B219
:10368000BDE8F0810024014000BFFEE770B50546AB
:103690000C467D2000F040F908B100F0C9F845F271
:1036A000555000F02BF8284600F01CF8204600F09A
:1036B0001FF800F00FF800F001F870BD4CF6CC4098
:1036C00001490860704700000030004010B500F06C
:1036D00001F810BD4AF6AA200149086070470000B1
:1036E0000030004001494860704700000030004051
:1036F00001498860704700000030004001490860BF
:10370000704700000030004000BFFEE77047000037
:1037100070B5002100230F22C47804B3154C24682F
:1037200004F4E064C4F5E064210AC1F10403CA4072
:10373000447804FA03F184781440214309010E4CC3
:103740000678A155047804F01F050124AC400578E3
:103750006D11AD0005F1E025C5F8004109E00478E0
:1037600004F01F050124AC40044D0678761145F89D
:10377000264070BD0CED00E000E400E080E100E0D8
:1037800002490143024A1160704700000000FA0537
:103790000CED00E07047000001460020034A50682D
:1037A00020F4404008435060704700000010024081
:1037B00029B1064A52690243044B5A6104E0034AA4
:1037C00052698243014B5A61704700000010024069
:1037D00029B1064AD2690243044BDA6104E0034A84
:1037E000D2698243014BDA61704700000010024049
:1037F00029B1064A92690243044B9A6104E0034AE4
:1038000092698243014B9A617047000000100240A8
:1038100029B1064AD2680243044BDA6004E0034A45
:10382000D2688243014BDA6070470000001002400A
:103830000348406A40F080700149486270470000C8
:103840000010024030B500210022002400232D4D3D
:103850006D6805F00C0121B1042905D0082923D198
:1038600005E0294D056022E0274D05601FE0254D4C
:103870006D6805F47012234D6D6805F480340225DF
:1038800005EB92421CB9214D554305600BE01D4DDF
:103890006D6805F400351DB11C4D5543056002E00F
:1038A000194D5543056002E0174D056000BF00BF8C
:1038B000144D6D6805F0F0010909154D6B5C056844
:1038C000DD4045600F4D6D6805F4E061090A104D5B
:1038D0006B5C4568DD4085600A4D6D6805F460519C
:1038E000C90A0B4D6B5C4568DD40C560054D6D68D0
:1038F00005F44041890B074D6B5CC568B5FBF3F5DA
:10390000056130BD0010024000127A0000093D0040
:10391000200000203000002010B5014600220023C6
:1039200000204A11012A02D1094C236806E0022A2C
:1039300002D1074C236A01E0054C636A01F01F02C3
:10394000012494401C400CB1012000E0002010BD77
:1039500000100240704710B500F002F810BD0000E2
:103960000CB50020019000903348006840F480308E
:103970003149086000BF3048006800F40030009012
:103980000198401C0190009818B90198B0F5A06FFB
:10399000F1D12948006800F4003010B101200090F6
:1039A00001E0002000900098012843D123480068DE
:1039B00040F01000214908600846006820F003002C
:1039C00008600846006840F0020008601A48406835
:1039D000194948600846406848600846406840F415
:1039E000806048600846406820F47C1048600846C3
:1039F000406840F4E81048600846006840F0807075
:103A0000086000BF0C48006800F000700028F9D082
:103A10000948406820F003000749486008464068AC
:103A200040F00200486000BF0348406800F00C000E
:103A30000828F9D10CBD000000100240002002400F
:103A4000042808D14FF0E021096941F004014FF04A
:103A5000E022116107E04FF0E021096921F0040143
:103A60004FF0E022116170477047000010B5124816
:103A7000006840F0010010490860084640680F499E
:103A800008400D494860084600680D4908400A4949
:103A900008600846006820F48020086008464068F6
:103AA00020F4FE0048604FF41F008860FFF753FFCA
:103AB00004480549086010BD001002400000FFF8EE
:103AC000FFFFF6FE0030000808ED00E010B5012110
:103AD000F94800F082FD00287AD00121F64800F074
:103AE0006DFDF6480088401CF4490880F44890F8C1
:103AF0002600012821D1F3480078401CF1490870C4
:103B000008460078FA2818D10020ED4981F82600EF
:103B1000EC490870EA4890F82840601CE84A82F8AE
:103B200028001046005D401EE74A52F82010002091
:103B300088470120E24981F82700E0480088C8282A
:103B40000AD10020DD490880E048006808B901205A
:103B500000E00020DD490860DD480078012816D12A
:103B6000DC480088401CDB49088008460088C828DB
:103B700010D10120D84908700020D8490870D449D4
:103B80000870D74908600120D649087002E000207B
:103B9000D0490880CE48407801281AD1D248008800
:103BA000401CD149088008460088C82814D101204B
:103BB000C94908700020C9490870C5494870CB49F7
:103BC00008600120C74948706420C949087003E0B3
:103BD000FEE30020C4490880BD488078012817D141
:103BE000C4480088401CC349088008460088C8288B
:103BF00011D10120B84908700020B8490870B449B3
:103C00008870BA49091D08600120B649887002E031
:103C10000020B8490880AE48C078012817D1B648BE
:103C20000088401CB449088008460088C82811D183
:103C30000120A94908700020A8490870A449C8704B
:103C4000AA49083108600120A649C87002E0002096
:103C5000A94908809E480079012817D1A748008803
:103C6000401CA649088008460088C82811D10120B8
:103C700099490870002099490870954908719B4935
:103C80000C31086001209749087102E000209B492F
:103C900008808F484079012817D199480088401C36
:103CA0009749088008460088C82811D101208A4910
:103CB0000870002089490870854948718B49103186
:103CC000086001208749487102E000208C49088083
:103CD0007F488079012817D18A480088401C89498B
:103CE000088008460088C82811D101207A49087048
:103CF00000207A490870764988717C49143108603F
:103D000001207849887102E000207E4908807048CF
:103D1000C079012817D17C480088401C7A49088066
:103D200008460088C82811D101206B49087000207E
:103D30006A4908706649C8716C49183108600120E9
:103D40006849C87102E000206F4908806048007A25
:103D5000012816D16D480088401C6C49088008462F
:103D60000088C82810D101205B49087000205B49F9
:103D7000087057490872664908600120594908725D
:103D800002E00020614908805148407A012817D19B
:103D900060480088401C5F49088008460088C828A1
:103DA00011D101204C49087000204C490870484945
:103DB00048725749091D086001204A49487202E0CB
:103DC0000020544908804248807A012817D152487F
:103DD0000088401C5049088008460088C82811D136
:103DE00001203D49087000203C490870384988721C
:103DF00047490831086001203A49887202E00020F2
:103E0000454908803248C07A012817D143480088C4
:103E1000401C4249088008460088C82811D101206A
:103E20002D49087000202D4908702949C872384969
:103E30003439086001202B49C87202E0002037495C
:103E400008802348007B012817D135480088401C92
:103E50003349088008460088C82811D101201E492E
:103E6000087000201D490870194908732849303925
:103E7000086001201B49087302E0002028490880DF
:103E80001348407B01284FD126480088401C254913
:103E9000088008460088C82849D101200E490870CA
:103EA00000200E4908700A49487319492C390860E6
:103EB00001200C4948733AE0000400408C000020C7
:103EC000F60200208B000020040200209001214215
:103ED000DD0100208E0000208A00002089000020E3
:103EE000A4812142E80300209000002080012342A9
:103EF00088000020920000209400002096000020FE
:103F0000980000209A0000209C0000209E000020C5
:103F1000B4012242A0000020A2000020A400002042
:103F2000A6000020A80000200020FE490880FE48CE
:103F3000807B012816D1FD480088401CFB49088081
:103F400008460088C82810D10120F94908700020CF
:103F5000F8490870F4498873F74908600120F74967
:103F6000887302E00020F1490880EF48C07B0128F7
:103F700016D1F3480088401CF149088008460088A3
:103F8000C82810D10120EA4908700020E9490870CA
:103F9000E549C873EB4908600120E849C87302E0AD
:103FA0000020E7490880E048007C012817D1E64856
:103FB0000088401CE449088008460088C82811D1C0
:103FC0000120DB4908700020DA490870D6490874DE
:103FD000DC49091D08600120D849087402E000206E
:103FE000D9490880D048407C012817D1D74800889B
:103FF000401CD649088008460088C82811D10120F5
:10400000CB4908700020CB490870C7494874CD4996
:10401000083108600120C949487402E00020CB49FA
:104020000880C148807C012817D1C9480078401C0D
:10403000C749087008460078C82811D10120BC493A
:1040400008700020BB490870B7498874BD490C311D
:1040500008600120B949887402E00020BC4908705A
:10406000B148C07C012817D1BA480078401CB94932
:10407000087008460078C82811D10120AC490870A2
:104080000020AC490870A849C874AE4914310860D2
:104090000120AA49C87402E00020AE490870A24875
:1040A000007D012817D1AC480078401CAA4908704F
:1040B00008460078C82811D101209D4908700020C9
:1040C0009C490870984908759E491831086001207C
:1040D0009A49087502E000209F4908709248407D87
:1040E000012817D19D480078401C9C49087008465B
:1040F0000078C82811D101208D49087000208D4911
:104100000870894948758F491C31086001208B4926
:10411000487502E00020914908708348807D01289D
:1041200017D18F480078401C8D49087008460078E8
:10413000C82811D101207E49087000207D490870EF
:10414000794988757C49091D086001207B4988757B
:1041500002E00020824908707348C07D012817D111
:1041600080480078401C7F49087008460078C828BD
:1041700011D101206E49087000206E4908706A490B
:10418000C8756D490831086001206C49C87502E0A6
:104190000020744908706448007E012816D17248D6
:1041A0000078401C7049087008460078C82810D173
:1041B00001205F49087000205E4908705A4908765E
:1041C0006A49086001205D49087602E000206649DE
:1041D00008705548407E012817D165480078401C7A
:1041E0006349087008460078C82811D10120504959
:1041F000087000204F4908704B4948765B49091DFB
:10420000086001204D49487602E0002058490870B6
:104210004548807E012816D156480078401C5549F3
:10422000087008460078C82810D10120404908705D
:104230000020404908703C4988764F4908600120B9
:104240003E49887602E000204A4908703648C07E20
:10425000012817D149480078401C48490870084691
:104260000078C82811D10120314908700020314957
:1042700008702D49C8764049091D086001202F4962
:10428000087702E000203D4908702748007F012898
:1042900017D13B480078401C39490870084600781F
:1042A000C82811D101202249087000202149087036
:1042B0001D49087730490831086001201F490877F7
:1042C00002E000202E4908701748407F012817D1CE
:1042D0002C480078401C2B49087008460078C828F4
:1042E00011D10120124908700020124908700E49AE
:1042F000487721490C31086001201049487702E0D5
:104300000020204908700848807F01284BD11E48B2
:104310000078401C1C49087008460078C82845D120
:10432000012033E0A8000020DD010020AA000020C9
:104330008A000020890000208C012242E80300202E
:10434000AC00002080012142AE000020B00000201F
:10435000B2000020B3000020B4000020B50000200F
:10436000B6000020B7000020B80000208481214260
:10437000B9000020BA0000209C012342BB000020AD
:10438000BC000020BD000020BE0000205C49087079
:1043900000205C4908705C4988775C49086001200E
:1043A0005B49887702E000205A4908705648C07F70
:1043B000012819D158480078401C57490870084610
:1043C0000078C82813D101204D490870002000E072
:1043D00090E04C4908704C49C8774C49091D086069
:1043E00001204B49C87702E000204B49087046483D
:1043F00090F82000012819D148480078401C47490E
:10440000087008460078C82813D101203C4908707C
:1044100000203C4908703C4981F820003B490831A4
:10442000086001203A4981F8200002E000203B4961
:104430000870354890F82100012819D138480078D3
:10444000401C3749087008460078C82813D101205D
:104450002B49087000202B4908702B4981F8210056
:104460002A490C3108600120294981F8210002E025
:1044700000202B490870244890F82200012819D107
:1044800028480078401C2749087008460078C8284A
:1044900013D101201A49087000201A4908701A49DE
:1044A00081F822001949103108600120184981F86B
:1044B000220002E000201B490870134890F82300F6
:1044C000012818D118480078401C17490870084680
:1044D0000078C82812D101200949087000200A4933
:1044E00081F8230011490860064908700120084935
:1044F00081F8230002E000200B49087010BD000085
:104500008A00002089000020DD010020AC01234248
:10451000E8030020BE000020BF000020C0000020F3
:10452000C1000020C2000020C3000020A881214259
:104530007FB505460C4601210220FFF749F9ADF889
:104540000850ADF804400020ADF80A00ADF80600B0
:1045500001A90E4800F05CF8012211460B4800F05A
:104560004DF81D208DF8000000208DF8010003207B
:104570008DF8020001208DF803006846FFF7C8F8A7
:104580000121024800F01DF87FBD0000000400403A
:1045900010B50121074800F020F848B10121054875
:1045A00000F00CF804480078401C0349087000BF74
:1045B00010BD000000080040C4000020CA43028271
:1045C000704721B1028842F00102028004E00288B3
:1045D0004FF6FE731A400280704730B50246002045
:1045E00000230024158A05EA0103958905EA0104E0
:1045F00013B10CB1012000E0002030BD1AB1838955
:104600000B43838102E083898B43838170470000E1
:10461000002202881D4B98420ED01D4B98420BD0B1
:10462000B0F1804F08D01B4B984205D01A4B9842EE
:1046300002D01A4B984204D14FF68F731A404B8820
:104640001A43174B984207D0164B984204D04FF6A6
:10465000FF431A40CB881A4302808B8883850B88DE
:1046600003850A4B98420BD0094B984208D00E4B59
:10467000984205D00D4B984202D00D4B984201D183
:104680000B7A03860123838270470000002C0140CF
:10469000003401400004004000080040000C0040CD
:1046A0000010004000140040004001400044014060
:1046B0000048014070B540F22551234800F054F8FD
:1046C00028B3214800F00CF9C4B2204890F86500E6
:1046D000012809D100201D4981F8650081F8640096
:1046E00081F8670081F86600184890F8640017495F
:1046F0000C54084690F86400401C81F86400084699
:1047000090F8640064281DDB03F062F81AE040F2C0
:1047100024410D4800F028F8A0B10B480088C5B22C
:104720000948001D0088C5B20120084981F86500CC
:1047300081F86700084690F8640081F86600002060
:1047400081F8640070BD000000380140CC000020FA
:1047500021B1828942F40052828104E082894DF6BF
:10476000FF731A408281704770B50246002400230F
:104770000025002040F66A16B14200D100BFC1F307
:10478000421501F01F03012606FA03F3012D02D1A1
:104790009689334006E0022D02D1168A334001E0AB
:1047A000968A33400C12012606FA04F41688344027
:1047B00013B10CB1012000E0002070BDF0B503463C
:1047C000002400260025002040F66A17B94200D1D7
:1047D00000BF1846C1F3421401F01F06012707FA73
:1047E00006F5012C01D10C3004E0022C01D110306F
:1047F00000E014301AB107682F43076002E0076831
:10480000AF430760F0BD00002DE9F04786B00546D4
:104810000E460024A24600BFA1460027B08900B181
:1048200000BF2F462C8A4CF6FF700440F0880443EA
:104830002C82AC894EF6F3100440B08831890843CD
:10484000718908430443AC81AC8A4FF6FF400440B1
:10485000B0890443AC8201A8FEF7F4FF1F488742E9
:1048600002D1DDF810A001E0DDF80CA0A88900F469
:10487000004040B10AEBCA0000EB0A103168490061
:10488000B0FBF1F807E00AEBCA0000EB0A10316850
:104890008900B0FBF1F86420B8FBF0F004012009B6
:1048A000642101FB1089A88900F4004040B1322046
:1048B00000EBC900B0FBF1F000F00700044308E092
:1048C000322000EB09106421B0FBF1F000F00F0082
:1048D00004432C8106B0BDE8F08700000038014099
:1048E00001468888C0F30800704700BFFEE700005B
:1048F0000FB4054B10B503A9044A029800F02CF838
:1049000010BC5DF814FB0000754E00081C00002070
:104910000FB41CB50A46521ECDE9000207A9054B8B
:104920006A46069800F018F8009A002111701CBC25
:104930005DF814FB194C000802E008C8121F08C1FA
:10494000002AFAD170477047002001E001C1121F10
:10495000002AFBD1704700002DE9FF4F8DB09B4628
:104960000F460446002606E025280BD05A460F992C
:104970009047641C761C20780028F5D111B0304691
:10498000BDE8F08F0025A8460122984900E00543C4
:1049900014F8013F203B02FA03F00842F7D12078D7
:1049A0002E2817D114F8010F45F004052A280ED03F
:1049B0006FF02F022078A0F1300109290AD808EB06
:1049C000880102EB410100EB0108641CF2E757F893
:1049D000048B641C20786C280DD004DC4C2812D089
:1049E0006A2811D104E074280DD07A280CD10AE08D
:1049F00045F4001507E0617845F48015814202D145
:104A0000641C05F58015641C2278692A45D008DCF1
:104A1000002AB3D0582A69D0632A10D0642A08D15A
:104A20003BE0702A67D0732A13D0752A5CD0782AAD
:104A30005CD010465A460F999047761CD3E017F881
:104A4000040B8DF8000000208DF80100E9460120DC
:104A500003E057F8049B4FF0FF3069074FF0000563
:104A600001D40AE06D1C45450DDA8542FADB19F8E0
:104A700005100029F6D106E06D1C8542FCDB19F813
:104A800005100029F8D12E4404E019F8010B5A460C
:104A90000F9990476D1EF8D2A5E00A200021CDE9BC
:104AA0000801C5F3025002280DD001CFC117031E23
:104AB00071F100030DDA4FF0000CD0EB0C006CEB41
:104AC00001012D2308E0FF1D27F00707F7E8020189
:104AD000EDE72B0504D52B238DF8283001233BE08F
:104AE000EB0739D02023F7E70A2000E0102000214F
:104AF000CDE9080107E01020002145F00405CDE9CB
:104B000008014FF00808C5F3025002280FD001CF6A
:104B100000214FF0000A2B071FD5702A0DD0DDE9C8
:104B200008C38CF0100C5CEA030C0CD015E0FF1DE0
:104B300027F00707F7E80201EBE740228DF828206D
:104B40004FF0010A0BE050EA010306D030238DF844
:104B500028308DF8292002239A46582A04D024A20E
:104B60000DF120090B9209E026A2F9E7DDE90823FF
:104B7000FEF72AFB0B9B9B5C09F8013D50EA010202
:104B8000F4D1ADEB090020300890680701D44FF054
:104B900001080899884502DDA8EB010000E000202B
:104BA0008046002506E00AA85A46405D0F999047C6
:104BB0006D1C761C5545F6DB04E030205A460F99F3
:104BC0009047761CB8F10001A8F10108F5DC05E07A
:104BD00019F8010B5A460F999047761C0899481E00
:104BE00008900029F4DC641CC5E6000009280100D7
:104BF0003031323334353637383961626364656653
:104C00000000000030313233343536373839414214
:104C100043444546000000004A68002A06D00A685E
:104C2000531C0B6010704868401E486070470000BD
:104C300000B587B001214FF40270FEF7D9FD4FF4A3
:104C40000040FEF7A9FD0120ADF8040000208DF81A
:104C5000070001A91748FEF718FC1748FEF722FBCA
:104C6000002002908DF80C008DF80D004FF46020AC
:104C700004900020059001208DF8180002A90E482C
:104C8000FEF760FB01210C48FEF701FB0A48FEF726
:104C9000DDFB00BF0848FEF74AFB0028FAD10648B2
:104CA000FEF7E4FB00BF0448FEF72AFB0028FAD118
:104CB00007B000BD000C014000240140002004E0CA
:104CC0000021034A1154411CC8B22428F8DB704764
:104CD000940200202DE9F04104460D46FEF7CEFB7C
:104CE000002605E014F8010B05490860701CC6B2E7
:104CF000AE42F7DB024807683846BDE8F0810000A5
:104D00000030024010B501214020FEF751FD10BDDA
:104D100018B5024600230093002132E0535C292B92
:104D200008DD535C402B05DA535C03F00F030DF8EC
:104D3000013024E0535C612B09DB535C662B06DCFD
:104D4000535C03F00F0309330DF8013017E0535C97
:104D5000412B09DB535C462B06DC535C03F00F034D
:104D600009330DF801300AE0012908D1535C33B949
:104D70009DF800308DF8013000238DF800304B1C79
:104D8000D9B20229CADB9DF801309DF8004043EA00
:104D90000413D8B218BD000010B56FF00400FEF780
:104DA0004FFE0A4800680A49B0FBF1F00949087053
:104DB0000846007800EB4001C1EBC0104FF6FF71D0
:104DC00001EAC0000449088010BD00000400002072
:104DD00000127A00180000201A0000200146114A33
:104DE00012884A434FF0E0235A6100229A611A4622
:104DF000126942F001021A6100BF4FF0E02210690F
:104E000000F001021AB100F48032002AF5D04FF010
:104E1000E022126922F001024FF0E0231A61002221
:104E20009A6170471A0000200146114A12784A43DD
:104E30004FF0E0235A6100229A611A46126942F04B
:104E400001021A6100BF4FF0E022106900F0010278
:104E50001AB100F48032002AF5D04FF0E022126936
:104E600022F001024FF0E0231A6100229A6170479C
:104E70001800002000BF054A128802F04002002AF4
:104E8000F9D0C2B2014B1B1D1A8070470038014097
:104E90000EB5FB480078012825D1FA48006860B9B2
:104EA000F9480078401CF849087008460078012845
:104EB00019DB0120F549087015E0F4480078012855
:104EC0000CD10020F1490870F1490860EC490870E4
:104ED000F0480078401EEF49087004E00020EB49DC
:104EE0000870E9490870E6484078012826D1E5486D
:104EF000001D006860B9E8480078401CE649087069
:104F000008460078042819DB0120E449087015E000
:104F1000E248007801280CD10020E0490870E049FF
:104F20000860D7494870DB480078401ED9490870AE
:104F300004E00020D9490870D7490870D04880782B
:104F4000012827D1CF480830006860B9D5480078DB
:104F5000401CD44908700846007804281ADB012058
:104F6000D149087016E0D048007801280DD1002002
:104F7000CD490870CA49091D0860C1498870C548F3
:104F80000078401EC349087004E00020C64908703C
:104F9000C4490870BA48C078012827D1B9480C30F4
:104FA000006860B9C1480078401CC04908700846D4
:104FB000007804281ADB0120BD49087016E0BC48BF
:104FC000007801280DD10020B9490870B449083192
:104FD0000860AB49C870AF480078401EAD49087002
:104FE00004E00020B2490870B0490870A448007974
:104FF000012827D1A3481030006860B9AD48007877
:10500000401CAC4908700846007804281ADB0120CF
:10501000A949087016E0A848007801280DD10020A1
:10502000A54908709E490C31086095490871994856
:105030000078401E9749087004E000209E490870DF
:10504000914908708E484079012827D18D48143045
:10505000006860B999480078401C98490870084673
:10506000007804281ADB01209549087016E094485E
:10507000007801280DD1002091490870884910312D
:1050800008607F49487183480078401E8149087054
:1050900004E000208A4908708849087078488079BF
:1050A000012827D17A489838006860B98548007887
:1050B000401C844908700846007804281ADB012047
:1050C0008149087016E08048007801280DD1002041
:1050D0007D490870724914310860694988716D48CA
:1050E0000078401E6B49087004E000207649087083
:1050F000744908706248C079012827D164489438FF
:10510000006860B971480078401C70490870084612
:10511000007804281ADB01206D49087016E06C48FD
:10512000007801280DD10020694908705C491831C8
:1051300008605349C87157480078401E55490870A7
:1051400004E0002062490870604908704C48007A09
:10515000012826D14E489038006860B95D48007833
:10516000401C5C49087008460078042819DB0120BF
:105170005949087015E05848007801280CD10020E2
:1051800055490870554908603D4908724148007802
:10519000401E4049087004E000204F4908704D4906
:1051A00008703748407A012827D139488C38006880
:1051B00060B94B480078401C49490870084600789F
:1051C00004281ADB01204749087016E0454800789A
:1051D00001280DD10020434908704049091D08608D
:1051E000274948722B480078401E2A49087004E07D
:1051F00000203C4908703A4908702148807A01280B
:1052000027D123488838006860B937480078401CA7
:10521000354908700846007804281ADB0120334914
:10522000087016E03148007801280DD100202F4980
:1052300008702A49083108601149C8721548007879
:10524000401E1449087004E00020284908702849CD
:1052500008700B48C07A012864D10D488438006872
:1052600060B923480078401C21490870084600783E
:10527000042857DB01201F49087053E03CE0000080
:10528000DD010020088122425C000020380000205F
:10529000A4812142880000205D0000203900002008
:1052A000800123425E0000203A0000205F000020C1
:1052B0003B000020600000203C0000206100002036
:1052C0003D000020620000203E000020630000201E
:1052D0003F0000206400002040000020B401224272
:1052E00065000020410000206600002042000020F0
:1052F0006700002043000020F948007801280CD105
:105300000020F7490870F7490860F749C872F74864
:105310000078401EF549087004E00020F04908704C
:10532000F3490870F048007B012827D1ED48643824
:10533000006860B9EF480078401CEE4908700846E4
:10534000007804281ADB0120EB49087016E0EA48CF
:10535000007801280DD10020E7490870E149091DB6
:105360000860E1490873E1480078401EDF49087091
:1053700004E00020E0490870DE490870DA48407B0C
:10538000012827D1D7486038006860B9DB48007829
:10539000401CDA4908700846007804281ADB01200E
:1053A000D749087016E0D648007801280DD10020B2
:1053B000D3490870CB4908310860CB494873CB48C2
:1053C0000078401EC949087004E00020CC490870EC
:1053D000CA490870C448807B012827D1C1485C387D
:1053E000006860B9C7480078401CC6490870084684
:1053F000007804281ADB0120C349087016E0C2486F
:10540000007801280DD10020BF490870B5490C3142
:105410000860B5498873B5480078401EB3490870E4
:1054200004E00020B8490870B6490870AE48C07B57
:10543000012826D1B548006860B9B5480078401CFD
:10544000B34908700846007804281ADB0120B149E6
:10545000087016E0AF48007801280DD10020AD4952
:105460000870AA49603108609F49C8739F48007856
:10547000401E9E49087004E00020A6490870A44917
:1054800008709948007C012827D1A0480C3000689A
:1054900060B9A1480078401C9F4908700846007810
:1054A00004281ADB01209D49087016E09B4800780B
:1054B00001280DD100209949087094496431086091
:1054C0008949087489480078401E8849087004E0BA
:1054D000002092490870904908708348407C012858
:1054E00027D18A481030006860B98D480078401C88
:1054F0008B4908700846007804281ADB0120894986
:10550000087016E08748007801280DD100208549F1
:1055100008707E49683108607349487473480078A0
:10552000401E7249087004E000207E4908707C49E2
:1055300008706D48807C012827D174481C300068B1
:1055400060B979480078401C7749087008460078AF
:1055500004281ADB01207549087016E073480078AA
:1055600001280DD100207149087068496C3108602C
:105570005D4988745D480078401E5C49087004E00D
:1055800000206A490870684908705748C07C0128A3
:1055900027D154485838006860B965480078401CE5
:1055A000634908700846007804281ADB0120614925
:1055B000087016E05F48007801280DD100205D4991
:1055C00008705249743108604749C87447480078E8
:1055D000401E4649087004E00020564908705449AE
:1055E00008704148007D012827D13E4854380068A2
:1055F00060B951480078401C4F490870084600784F
:1056000004281ADB01204D49087016E04B48007849
:1056100001280DD10020494908703C4978310860C3
:105620003149087531480078401E3049087004E05F
:10563000002042490870404908702B48407D0128ED
:1056400027D128485038006860B93D480078401C90
:105650003B4908700846007804281ADB01203949C4
:10566000087016E03748007801280DD10020354930
:10567000087026497C3108601B4948751B48007832
:10568000401E1A49087004E000202E4908702C4979
:1056900008701548807D012861D12B48006860B9E9
:1056A0002A480078401C29490870084600780428D8
:1056B00055DB01202649087051E025480078012873
:1056C00048D1002022490870064910310860064977
:1056D000887506480078401E044908703FE00000C5
:1056E0004300002080012242DD01002088000020CC
:1056F00067000020680000204400002069000020AE
:10570000450000206A0000204600002020012142C0
:105710006B000020470000206C00002048000020A3
:105720006D000020490000206E0000204A0000208B
:105730006F0000204B000020700000204C00002073
:10574000710000204D0000200081224272000020E4
:105750004E0000200020FE490870FE490870FE48F7
:10576000C07D012825D1FD48006860B9FC4800785B
:10577000401CFB49087008460078042819DB01200A
:10578000F849087015E0F748007801280CD100208E
:10579000F4490870F4490860EF49C875F348007887
:1057A000401EF249087004E00020EE490870EC4900
:1057B0000870E948007E012826D1ED48006860B9EC
:1057C000EC480078401CEB49087008460078042833
:1057D0001ADB0120E849087016E0E7480078012844
:1057E0000DD10020E4490870E14954310860DA49DC
:1057F0000876DE480078401EDC49087004E000208E
:10580000DD490870DB490870D348407E012827D164
:10581000D748001D006860B9D8480078401CD749B7
:1058200008700846007804281ADB0120D449087063
:1058300016E0D348007801280DD10020D049087027
:10584000CB4958310860C4494876C8480078401EA2
:10585000C649087004E00020C9490870C7490870AB
:10586000BD48807E012826D1C1480830006860B953
:10587000C4480078401CC3490870084600780428D2
:1058800019DB0120C049087015E0BF4800780128E5
:105890000CD10020BC490870BC490860AE4988762C
:1058A000B2480078401EB149087004E00020B649B3
:1058B0000870B4490870A848C07E012827D1AC48B8
:1058C0000C30006860B9B2480078401CB0490870DC
:1058D0000846007804281ADB0120AE49087016E05B
:1058E000AC48007801280DD10020AA490870A749CA
:1058F000091D08609849C8769C480078401E9B495D
:10590000087004E00020A3490870A149087092487B
:10591000007F012827D191481C30006860B99E485B
:105920000078401C9C4908700846007804281ADB5F
:1059300001209A49087016E09848007801280DD196
:10594000002096490870914908310860824908771B
:1059500086480078401E8549087004E000208F4981
:1059600008708D4908707C48407F012827D17B480A
:105970002030006860B98A480078401C8849087067
:105980000846007804281ADB01208649087016E0D2
:105990008448007801280DD10020824908707B4995
:1059A0000C3108606C49487770480078401E6F4998
:1059B000087004E000207B49087079490870664847
:1059C000807F012827D165482430006860B9764877
:1059D0000078401C744908700846007804281ADBD7
:1059E00001207249087016E07048007801280DD136
:1059F00000206E4908706549103108605649887763
:105A00005A480078401E5949087004E00020674950
:105A10000870654908705048C07F012827D14F4859
:105A20002830006860B962480078401C60490870FE
:105A30000846007804281ADB01205E49087016E049
:105A40005C48007801280DD100205A4908704F4960
:105A5000143108604049C87744480078401E4349E3
:105A6000087004E0002053490870514908703A4812
:105A700090F82000012828D138482C30006860B9FF
:105A80004D480078401C4C490870084600780428AE
:105A90001BDB01204949087017E0484800780128BD
:105AA0000ED10020454908703849183108602A494C
:105AB00081F820002D480078401E2C49087004E031
:105AC00000203E4908703C490870234890F82100A6
:105AD000012828D121483030006860B93848007862
:105AE000401C374908700846007804281BDB012059
:105AF0003449087017E03348007801280ED100209F
:105B00003049087021491C310860134981F821008F
:105B100016480078401E1549087004E00020294905
:105B20000870274908700C4890F82200012868D1B5
:105B30000A483430006848B923480078401C22499C
:105B400008700846007804285BDB3FE042E0000074
:105B50004E00002072000020DD010020048122425E
:105B6000730000204F000020940122428800002092
:105B70003081214274000020500000207500002078
:105B80005100002076000020520000209C0123429A
:105B900077000020530000207800002054000020EF
:105BA00079000020550000207A00002056000020D7
:105BB0007B000020570000207C00002058000020BF
:105BC0007D000020590000207E0000200120474970
:105BD000087016E04548007801280DD1002043499F
:105BE000087043490860434981F822004248007820
:105BF000401E4149087004E000203C4908703F49BC
:105C000008703C4890F82300012826D13C480068E1
:105C100060B93C480078401C3A4908700846007852
:105C200004281ADB01203849087016E0364800784D
:105C300001280DD1002034490870344908602D49ED
:105C400081F823002C480078401E2B49087004E09E
:105C500000202D4908702B4908702D480078012834
:105C600043D125480078E8BB642023490870002010
:105C7000274908700A2127A0FFF72CF82849086057
:105C800008460068000E2749087025480068000C87
:105C90002549087022480068000A244908702048F5
:105CA00000682349087008460078204909781E4A90
:105CB0001278CDE9002102901A4803781DA215211F
:105CC0002148FEF725FE0120204908601E4920A03A
:105CD000FEF70EFE9620FFF7A7F800201E49C1F838
:105CE000980100E001E0FEF7E9FF0EBD5A00002038
:105CF000BC012342DD010020880000207E0000203E
:105D00003C8122427F0000205B000020A8812142CC
:105D1000890000205A2C505553482C4F4B2C000022
:105D200080000020840000208500002086000020E4
:105D3000870000205A2C505553482C4F4B2C257867
:105D400025782578257800009402002098012242C9
:105D500025730D0A000000000000224208B5012151
:105D60003C20FDF745FD4FF4C850ADF80000482039
:105D70008DF8030003208DF8020069463248FDF7D4
:105D800084FB4FF2E010ADF8000048208DF80300CE
:105D900003208DF8020069462C48FDF776FB4FF48E
:105DA000FC50ADF8000048208DF8030003208DF86A
:105DB000020069462648FDF768FB4FF6FC70ADF817
:105DC000000048208DF8030003208DF8020069468A
:105DD0002048FDF75AFB0121C803FDF7E1FB012133
:105DE0002120FDF705FD0320ADF8000048208DF8C7
:105DF000030003208DF8020069461648FDF745FBB5
:105E000001211548FDF7CCFB01210D20FDF7F0FC29
:105E10001820ADF8000048208DF8030003208DF80D
:105E2000020069460948FDF730FB4FF40040ADF829
:105E3000000048208DF8030003208DF80200694619
:105E40000148FDF722FB08BD00080140000C01409D
:105E50000010014000140140000230004FF4A06027
:105E6000FDF78EFCFEF798FF4FF4E13000F0C2FF23
:105E7000472141F28730FEF75BFBFEF743FF00F05E
:105E8000A3FBFEF7D5FE00F023F8FFF767FF4FF402
:105E9000FA70FEF7A3FF40F271210420FDF7F6FB34
:105EA00014210820FDF7C6FB074908800020074998
:105EB000086007E001F0A8FCFEF7EAFFFDF706FC2A
:105EC00000F0CCF9F6E7000000000020900121422C
:105ED00008B501210820FDF78BFC4FF40060ADF8F8
:105EE000000010208DF8030003208DF802006946A1
:105EF0000148FDF7CAFA08BD000C0140012803D192
:105F00000121034A116002E00021014A116070473B
:105F1000A4812142012803D10121034A116002E03A
:105F20000021014A11607047B8012242012803D1C3
:105F30000121034A116002E00021014A116070470B
:105F4000BC012242012803D10121034A116002E071
:105F50000021014A1160704780012242012803D1CB
:105F60000121034A116002E00021014A11607047DB
:105F700084012242012803D10121034A116002E079
:105F80000021014A1160704788012242012803D193
:105F90000121034A116002E00021014A11607047AB
:105FA0008C012242012803D10121034A116002E041
:105FB0000021014A1160704780012142012803D16C
:105FC0000121034A116002E00021014A116070477B
:105FD00084012142012803D10121034A116002E01A
:105FE0000021014A1160704788012142012803D134
:105FF0000121034A116002E00021014A116070474B
:106000008C012142012803D10121034A116002E0E1
:106010000021014A1160704780012342012803D109
:106020000121034A116002E00021014A116070471A
:1060300094012142012803D10121034A116002E0A9
:106040000021014A1160704798012142012803D1C3
:106050000121034A116002E00021014A11607047EA
:106060009C012142012803D10121034A116002E071
:106070000021014A1160704790012242012803D19A
:106080000121034A116002E00021014A11607047BA
:1060900094012242012803D10121034A116002E048
:1060A0000021014A1160704784812142012803D1F7
:1060B0000121034A116002E00021014A116070478A
:1060C00088812142012803D10121034A116002E0A5
:1060D0000021014A116070479C012342012803D12D
:1060E0000121034A116002E00021014A116070475A
:1060F000A0012342012803D10121034A116002E0DB
:106100000021014A11607047A4012342012803D1F4
:106110000121034A116002E00021014A1160704729
:1061200084012342012803D10121034A116002E0C6
:106130000021014A11607047A8012342012803D1C0
:106140000121034A116002E00021014A11607047F9
:10615000AC012342012803D10121034A116002E06E
:106160000021014A11607047B0012342012803D188
:106170000121034A116002E00021014A11607047C9
:10618000B4012342012803D10121034A116002E036
:106190000021014A11607047B8012342012803D150
:1061A0000121034A116002E00021014A1160704799
:1061B000BC012342012803D10121034A116002E0FE
:1061C0000021014A11607047A8812142012803D1B2
:1061D0000121034A116002E00021014A1160704769
:1061E00088012342012803D10121034A116002E002
:1061F0000021014A116070478C012342012803D11C
:106200000121034A116002E00021014A1160704738
:1062100090012342012803D10121034A116002E0C9
:106220000021014A1160704794012342012803D1E3
:106230000121034A116002E00021014A1160704708
:1062400098012342012803D10121034A116002E091
:106250000021014A11607047B40122421FB548482D
:1062600090F8240001287DD1454890F827000128A6
:10627000F9D10020424981F82700084690F828000B
:106280000A46105C401E3F4A52F820100120884701
:1062900001203B4981F826006420FEF79FFD0A217A
:1062A0000820FDF7C7F9044637480088844212DB0E
:1062B00035480088201A84B204EBC40032300090C4
:1062C0002F4890F828002E490B5C30A20F2133484C
:1062D000FEF71EFB0BE032200090294890F82800C2
:1062E00027490B5C29A20F212C48FEF711FB19212D
:1062F0002A48FEF7EFFC2A49086008460068000EAD
:106300002849087026480068000C2749087024486E
:106310000068000A2549087021480068244908706F
:1063200008460078214909781F4A12781D4B1B78CE
:10633000CDE90032CDE90210184B1EA217211846F4
:10634000FEF7E6FA01201E49086014491DA0FEF779
:10635000CFFA9620FEF768FD00201C49C1F898018D
:10636000074800E00AE090F8281090F82500401E49
:10637000814203D10020024981F824001FBD0000A2
:10638000F60200200402002000000020422C4348B6
:106390004B4D2C25642C25642C000000C4010020EA
:1063A000800000208400002085000020860000205E
:1063B000870000202573257825782578257800002A
:1063C0009801224225730D0A0000000000002242BD
:1063D00000202C4908602C49C1F88401294908395A
:1063E00008602A490860274910310860091F0860C1
:1063F000091F0860091F08602549086024493C31CD
:106400000860091F0860091F0860224908602049C8
:106410000C310860091F0860091F08601D4914310C
:1064200008601C490C310860091F0860091F0860DA
:10643000174914310860091F086016491C310860AB
:10644000091F08600F4918310860091F08600F49CB
:106450001C390860091F08600A4928310860091FB3
:106460000860091F0860091F08600849091D0860C5
:10647000044934310860091F08600349C1F8B401B8
:10648000704700008801234200002342A48121427A
:10649000800122428001214226482749086027487E
:1064A0004860274888602748C8602748086127480F
:1064B0004861274888612748C861274808622748FB
:1064C0004862274888622748C862274808632748E7
:1064D0004863274888632748C863274808642748D3
:1064E0004864274888642748C864274808652748BF
:1064F0004865274888652748C865274808662748AB
:106500004866274888662748C86627480867274896
:106510004867274888672748C8672748C1F8800028
:106520002648C1F884002648C1F888002548C1F8EB
:106530008C007047FD5E0008040200200560000822
:106540000D610008CD610008E5610008FD610008EB
:10655000156200082D62000845620008155F0008FA
:106560002D5F0008455F00085D5F0008755F00084B
:106570008D5F0008A55F0008BD5F0008D55F0008BB
:10658000ED5F00081D600008356000084D600008E0
:10659000656000087D60000895600008AD60000837
:1065A000C5600008DD600008F5600008256100088E
:1065B0003D610008556100086D61000885610008B3
:1065C0009D610008B561000808B501215C20FDF758
:1065D0000FF9FF20ADF8000010208DF80300032014
:1065E0008DF8020069462A48FCF74FFFEF21284842
:1065F000FDF71EF840F60660ADF8000010208DF89B
:10660000030003208DF8020069462248FCF73DFF95
:1066100040F606611F48FDF70BF83F20ADF800007B
:1066200010208DF8030003208DF8020069461A48F7
:10663000FCF72BFF3F211848FCF7FAFF4FF46040AE
:10664000ADF8000002208DF8020069461248FCF700
:106650001CFF4FF460411048FCF7EAFF4FF6FF7053
:10666000ADF8000010208DF8030003208DF8020023
:1066700069460A48FCF709FF4FF6FF710748FCF727
:10668000D7FFFFF709FF64200549087008BD000027
:1066900000080140000C01400010014000180140BA
:1066A00088000020F0B587B00024002600BF20E05D
:1066B0003E48075D00203D49085517B905F07F05A4
:1066C00001E045F08005601CC11700EB5171C91055
:1066D000A0EBC10109B1232C08D1232C00D12D112D
:1066E00005A88555701CC6B2002500E06D10601C21
:1066F000C4B2242CDCDB9DF814009DF815109DF825
:1067000016209DF81730CDE90032CDE902109DF832
:10671000183027A21B212E48FEF7FAF8FCF7AEFE30
:10672000002405E02A48005D2A490860601CC4B2C4
:10673000312CF7D3274800682749086008460068CD
:10674000000E2649087024480068000C244908708F
:1067500021480068000A234908701F480068224940
:106760000870084600781F4909781D4A12781B4BAB
:106770001B78CDE90032CDE90210154B1BA2252173
:106780001846FEF7C5F801201B49086010491BA0F8
:10679000FEF7AEF89620FEF747FB00201949C1F836
:1067A0009801FEF78BFA07B0F0BD0000E803002067
:1067B000422C505553482C544F55542C25785F2566
:1067C000785F25785F25785F25785F2C00000000D2
:1067D000940200200030024080000020840000204D
:1067E0008500002086000020870000202573257882
:1067F00025782578257800009801224225730D0A16
:10680000000000000000224207B500206EE10A28C7
:1068100000DB70E11DF8001025291BD2DFE801F034
:106820001A131B232C353E475059616A737C858EA1
:10683000979FA8B1BAC3CCD5DEF3FCF0EFEEEDEC38
:10684000EBEAE9E8E7000121AC4A1160AC4A1170BB
:10685000AC4A117047E10121AB4A1160A84A51705E
:10686000A84A11703FE10121A74A121D1160A44AF4
:106870009170A44A117036E10121A34A08321160D7
:106880009F4AD1709F4A11702DE101219E4A0C321E
:1068900011609B4A11719B4A117024E101219A4AAF
:1068A00010321160964A5171964A11701BE1012114
:1068B000954A14321160924A9171924A117012E114
:1068C0000121914A183211608D4AD1718D4A11709F
:1068D00009E101218D4A1160894A1172894A1170BA
:1068E00001E10121894A121D1160854A5172854AD0
:1068F0001170F8E00121854A08321160804A9172D6
:10690000804A1170EFE00121804A343A11607C4ADC
:10691000D1727C4A1170E6E001217C4A303A116064
:10692000774A1173774A1170DDE00121774A2C3ADA
:106930001160734A5173734A1170D4E00121734A94
:10694000283A11606E4A91736E4A1170CBE00121B2
:106950006F4A11606A4AD1736A4A1170C3E001211B
:106960006B4A121D1160664A1174664A1170BAE0D2
:106970000121674A08321160614A5174614A1170FD
:10698000B1E00121624A0C3211605D4A91745D4AA6
:106990001170A8E001215E4A14321160584AD17486
:1069A000584A11709FE00121594A18321160544A27
:1069B0001175544A117096E00121554A1C3211603C
:1069C0004F4A51754F4A11708DE001214F4A243AC8
:1069D00011604B4A91754B4A117084E001214B4A7A
:1069E000203A1160464AD175464A11707BE070E04A
:1069F00065E05AE04FE045E03BE031E027E01DE094
:106A000013E009E0FFE701213C4A203A11603C4ACB
:106A100011763C4A117066E00121384A1C3A116037
:106A2000374A5176374A11705DE00121364A1C32EF
:106A30001160334A9176334A117054E00121324A91
:106A4000203211602E4AD1762E4A11704BE001217E
:106A50002D4A243211602A4A11772A4A117042E0E5
:106A60000121294A28321160254A5177254A11709F
:106A700039E00121244A2C321160214A9177214AC0
:106A8000117030E00121204A303211601C4AD17768
:106A90001C4A117027E001211B4A34321160184A48
:106AA00082F82010174A11701DE00121164A383271
:106AB0001160134A82F82110124A117013E001216B
:106AC000114A3C3211600E4A82F822100D4A1170B0
:106AD00009E00121094A121D1160094A82F82310B8
:106AE000084A117000BF00BF411CC8B29DF80A10CF
:106AF00081423FF78CAE00BF0EBD0000A481214251
:106B0000DD0100208900002080012342B4012242DF
:106B10008001214201490968C8B2704708812242B8
:106B200001490968C8B270470C81224201490968CD
:106B3000C8B270471C81214201490968C8B2704738
:106B40002081214201490968C8B270471C012242D4
:106B500001490968C8B27047200122420149096809
:106B6000C8B270472401224201490968C8B270477F
:106B70002001214201490968C8B270472C01214215
:106B800001490968C8B270473001214201490968CA
:106B9000C8B270473C01214201490968C8B2704738
:106BA0002801224201490968C8B270471081224277
:106BB00001490968C8B270472C012242014909689D
:106BC000C8B270473001224201490968C8B2704713
:106BD0000081224201490968C8B2704704812242FB
:106BE00001490968C8B270473081214201490968EA
:106BF000C8B270473481214201490968C8B2704760
:106C00003881214201490968C8B270473C8121425C
:106C100001490968C8B270472081224201490968C8
:106C2000C8B270472481224201490968C8B270473E
:106C30001481224201490968C8B270472881224262
:106C400001490968C8B270472C812242014909688C
:106C5000C8B270473081224201490968C8B2704702
:106C60003481224201490968C8B270473881224202
:106C700001490968C8B270473C812242014909684C
:106C8000C8B270471881224201490968C8B27047EA
:106C90001C81224201490968C8B270470C81214217
:106CA00001490968C8B27047108121420149096849
:106CB000C8B270471481214201490968C8B27047BF
:106CC00018812142264827490860274848602748FC
:106CD00088602748C86027480861274848612748D6
:106CE00088612748C86127480862274848622748C2
:106CF00088622748C86227480863274848632748AE
:106D000088632748C8632748086427484864274899
:106D100088642748C8642748086527484865274885
:106D200088652748C8652748086627484866274871
:106D300088662748C866274808672748486727485D
:106D400088672748C8672748C1F880002648C1F8E7
:106D500084002648C1F888002548C1F88C00704797
:106D6000156B000834010020216B0008A56B00089A
:106D7000296C00087D6C0008896C0008956C00087F
:106D8000A16C0008AD6C0008B96C00082D6B000800
:106D9000396B0008456B0008516B00085D6B0008FB
:106DA000696B0008756B0008816B00088D6B00082B
:106DB000996B0008B16B0008BD6B0008C96B000837
:106DC000D56B0008E16B0008ED6B0008F96B00085B
:106DD000056C0008116C00081D6C0008356C00087B
:106DE000416C00084D6C0008596C0008656C000887
:106DF000716C000810B586B00446012144F21400FD
:106E0000FCF7F6FC4FF40070ADF8140003208DF889
:106E1000160018208DF8170005A92848FCF735FB47
:106E20004FF48060ADF8140004208DF8170005A918
:106E30002248FCF72AFB4020ADF8140003208DF80F
:106E4000160010208DF8170005A91D48FCF71DFB42
:106E500040211B48FCF7ECFB25208DF800000320A7
:106E60008DF801008DF8020001208DF803006846BE
:106E7000FCF74EFC01940020ADF80800ADF80A00C4
:106E8000ADF80C00ADF810000C20ADF80E0001A913
:106E90000C48FDF7B9FC012240F225510948FDF7E5
:106EA0008DFC012240F224410648FDF787FC0121B8
:106EB0000448FDF74DFC06B010BD0000000801407D
:106EC00000100140003801402DE9F04F89B0EB4639
:106ED000002482B06D46FEA1FE48FCF753F98146BE
:106EE000AA460BE0CAF8009082B0CAF804D0DAF8DB
:106EF00004A0F7A10020FCF745F98146B9F1000F85
:106F0000F0D10020CAF80400F3A12868FCF72CF99E
:106F1000002847D169680868F0A1FCF725F9002826
:106F200041D1F04981F824000120EF49086008218F
:106F3000EEA0FDF7CFFEF049086008460068000E9D
:106F4000EE490870EC480068000CED490870EA480A
:106F50000068000AEB490870E7480068EA490870D1
:106F600008460078E7490978E54A127884B0CDE907
:106F700000210290E1480378E4A21021E848FDF7DF
:106F8000C7FC04B00120E749C1F89801E449E6A034
:106F9000FDF7AEFC9620FDF747FF0020E4490860AE
:106FA000FDF78CFE24E369680868E2A1FCF7DCF8D1
:106FB000002840D1CC490860CA4981F82400092141
:106FC000DEA0FDF787FECC49086008460068000E89
:106FD000CA490870C8480068000CC9490870C6480A
:106FE0000068000AC7490870C3480068C6490870AD
:106FF00008460078C3490978C14A127884B0CDE9BF
:1070000000210290BD480378CFA21121C448FDF7AA
:107010007FFC04B00120C349C1F89801C049C2A057
:10702000FDF766FC9620FDF7FFFE0020C0490860D2
:10703000FDF744FEDCE269680868C8A1FCF794F833
:1070400000287DD1A74981F824000A210820FCF7F7
:10705000F1FA8046C2490988884546DBC048008865
:10706000A8EB00001FFA80F80621BEA0FDF732FE53
:10707000A149086008460068000EA04908709E48B3
:107080000068000C9E4908709B480068000A9D49F2
:107090000870994800689C4908700846007899492A
:1070A0000978974A1278954B1B7884B0CDE9003265
:1070B000CDE9021008EBC80000F13203ABA21121A8
:1070C0009748FDF725FC04B00120994908609449D0
:1070D00095A0FDF70DFC9620FDF7A6FE0020914936
:1070E000C1F89801FDF7EAFD82E206219DA0FDF7B7
:1070F000F1FD8149086008460068000E7F4908706C
:107100007D480068000C7E4908707B480068000AD2
:107110007C490870784800687B4908700846007808
:1071200078490978764A1278744B1B7884B0CDE997
:107130000032CDE9021032238CA21121784800E000
:1071400013E0FDF7E5FB04B00120794908607449BC
:1071500075A0FDF7CDFB9620FDF766FE0020714976
:10716000C1F89801FDF7AAFD42E26968086884A1A8
:10717000FBF7FAFF002873D15A4981F824006868A8
:10718000406881A20F2103680BF11400FDF7C0FBDA
:107190006968496808687DA1FBF7F4FF814686E0CD
:1071A0004846FDF7B5FD0646002E79D0002774E06D
:1071B00006F0010000286DD07548807A0A285BDB54
:1071C0000020734988720BF1140372A221215448E4
:1071D000FDF79EFB0E215248FDF77CFD46490860F5
:1071E00008460068000E4549087043480068000CD6
:1071F0004349087040480068000A424908703E4808
:10720000006841490870084600783E4909783C4AC0
:1072100012783A4B1B7884B0CDE90032CDE90210E8
:107220003F4B61A22B211846FDF772FB04B00120F1
:107230003F4908603A493CA0FDF75AFB9620FDF70C
:10724000F3FD002405E000200BF114010855601C3B
:10725000C4B20F2CF7DB002035490860002405E09C
:10726000E1E000204A490855601CC4B20A2CF8DB52
:1072700000204749887212E0C4F1040007EBC00007
:10728000401C4349897A424A50541046807A401C37
:10729000114688727610781CC7B2082F88DB00BFB1
:1072A0003AA10020FBF76EFF8146601CC4B2B9F121
:1072B000000F7FF475AF3648807A3E490870344835
:1072C00000788BF80800324840788BF8090073E0AA
:1072D0002C000000CC0000205A0000004F55544FF5
:1072E0004E000000F6020020AC812142422C4F5596
:1072F000544F4E2C0000000080000020840000202D
:10730000850000208600002087000020422C4F5579
:10731000544F4E2C257825782578257800000000DC
:10732000940200200000224225730D0A0000000094
:10733000980122424F55544F46460000422C4F556B
:10734000544F46462C000000422C4F55544F4646A1
:107350002C257825782578257800000041444300C5
:1073600000000020422C4144432C0000422C4144A8
:10737000432C25782C257825782578257800000061
:107380005055534800000000257300005F000000C6
:10739000C6020020422C505553482C4558434545C1
:1073A000442C25732C00000025732578257825783A
:1073B00025780000880000208F4880788BF80A002C
:1073C0008D48C0788BF80B008B4800798BF80C0047
:1073D000894840798BF80D00874880798BF80E003A
:1073E0008548C0798BF80F008348007A8BF810002D
:1073F0008148407A8BF811007F48807A8BF8120020
:10740000DBE90312DBF80800FFF7FEF9002404E0D3
:10741000002079490855601CC4B20A2CF8DB002012
:1074200075498872E4E06968086874A1FBF79CFEFE
:1074300030B90020724981F8240000F017F9D7E034
:10744000696808686FA1FBF78FFE00284FD1002400
:1074500004E000206A490855601CC4B2242CF8DB03
:107460000020674981F8250081F828000024696818
:1074700049680868AFF2EC01FBF784FE81462CE016
:107480004846FDF745FC06460CB906F00F06E6B186
:10749000002718E006F0800088B1C4F1040008213C
:1074A00001EBC000C01B564991F82510544A5054B6
:1074B000104690F82500401C114681F82500700602
:1074C000060E781CC7B2082FE4DBAFF24011002093
:1074D000FBF758FE8146601CC4B2B9F1000FCFD152
:1074E0000120474981F8240081F8270080E069687D
:1074F000086846A1FBF738FEE8BB0020404981F848
:107500002400FEF765FF072142A0FDF7E3FB444995
:10751000086008460068000E42490870404800684C
:10752000000C414908703E480068000A3F49087055
:107530003B4800683E490870084600783B49097896
:10754000394A127884B0CDE9002102903548037899
:1075500038A210213C48FDF7DBF904B000F0FEF939
:107560003949AFF23C20FDF7C3F99620FDF75CFCEA
:1075700000F0EEF900E002E0FDF7A0FB38E00921A1
:1075800032A0FDF7A7FB2649086008460068000EF8
:107590002449087022480068000C234908702048DC
:1075A0000068000A214908701D48006820490870D9
:1075B000084600781D4909781B4A127884B0CDE945
:1075C000002102901748037823A211211E48FDF7DD
:1075D0009FF904B000F0C2F91B49AFF2B420FDF7E7
:1075E00087F99620FDF720FC00F0B2F9FDF766FB65
:1075F000DD4609B0BDE8F08FC6020020494E00000C
:10760000F602002043484B4D00000000434C4F530E
:1076100045000000422C434C4F53452C0000000015
:1076200080000020840000208500002086000020CB
:1076300087000020422C434C4F53452C2578257859
:10764000257825780000000094020020422C434D4C
:10765000445752472C000000422C434D4457524798
:107660002C2578257825782578000000F0B58BB09A
:1076700000240027FFF726FB00BF20E03E4951F819
:1076800024008047064616B905F07F0501E045F065
:107690008005601CC11700EB5171C910A0EBC1013E
:1076A00009B1232C08D1232C00D12D1109A8C555CF
:1076B000781CC7B2002500E06D10601CC4B2242CF9
:1076C000DCDB2EA29DF824002CA39DF82510CDE92B
:1076D0000513CDE9070229A29DF8260027A39DF8EE
:1076E0002710CDE90113CDE9030224A000909DF8F5
:1076F000283023A214212948FDF70AF90F21274831
:10770000FDF7E8FA2649086008460068000E25499A
:10771000087023480068000C23490870204800685E
:10772000000A224908701E4800682149087008466E
:1077300000781E4909781C4A12781A4B1B78CDE94B
:107740000032CDE90210154B1AA21D211846FDF793
:10775000DFF801201A49086010491AA0FDF7C8F89F
:107760009620FDF761FB00201849C1F89801FDF74C
:10777000A5FA0BB0F0BD0000340100205F0000004E
:10778000422C494E2C25782573257825732578259C
:107790007325782573257825730000009402002056
:1077A000800000208400002085000020860000204A
:1077B0008700002025732C257825782578257800EA
:1077C0009801224225730D0A0000000000002242A9
:1077D000002004E000210B4A1154411CC8B20949A1
:1077E00091F866108142F5DC0021064A117082F89A
:1077F000641082F86710012182F86510002182F878
:1078000066107047CC00002010B548480078012869
:1078100004D1002045490870FEF744FF444890F821
:10782000670001284CD10020414981F867000846D3
:1078300090F86600001FC1B23D48FDF74BFA3D4984
:10784000086008460068000E3B4908703948006827
:10785000000C3A49087037480068000A3849087037
:107860003448006837490870314890F86600401E77
:107870002F49085C33490978884222D12C4890F876
:107880006600801E2A49085C2D490978884218D173
:10789000274890F86600C01E2549085C27490978EA
:1078A00088420ED1224890F86600001F2049085CEB
:1078B00021490978884204D1FFF706FBFFF788FFCA
:1078C00032E01B48007842282ED1194880784D2894
:1078D0002AD11748C078432826D115480079552861
:1078E00022D11348407952281ED111488079452869
:1078F0001AD10F48C079532816D10D48007A45286F
:1079000012D10B48407A54280ED100BF0E480068AF
:1079100000F4E0600D490843001D0B490860BFF307
:107920004F8F00BF00BFFEE710BD00008A0000209F
:10793000CC00002080000020840000208500002072
:1079400086000020870000200CED00E00000FA0512
:107950000020014908607047980122420120014936
:1079600008607047980122428879000800000020D2
:10797000CC00000038490008547A0008CC000020F0
:1079800044070000484900080000000000A24A0423
:1079900000000000000000000102030406070809BF
:1079A00000000000000000000000000001020304CD
:1079B000010203040607080902040608000000008B
:1079C00000000000000000000000000000000000B7
:1079D00000000000000000000000000000000000A7
:1079E0000000000000000000000000000000000097
:1079F0000000000000000000000000000000000087
:107A00000000000000000000000000000000000076
:107A10000000000000000000000000000000000066
:107A20000000000000000000000000000000000056
:107A30000000000000000000000000000000000046
:107A40000000000000000000000000000000000036
:047A50000000000032
:04000005080031318D
:00000001FF
